:100000000C942A000C9447000C9447000C94470071
:100010000C9447000C9447000C9447000C94470044
:100020000C9447000C9447000C9447000C945A2AF7
:100030000C9447000C9447000C9447000C94470024
:100040000C9447000C9447000C9447000C94470014
:100050000C94470011241FBECFE5D8E0DEBFCDBF12
:1000600012E0A0E6B0E0E8ECF2E602C005900D92E6
:10007000A63CB107D9F712E0A6ECB2E001C01D9290
:10008000A13EB107E1F70E94702C0C9462310C94F0
:100090000000EF92FF920F93DF93CF93CDB7DEB7BF
:1000A00060970FB6F894DEBF0FBECDBFA82F002318
:1000B00009F461C07E010894E11CF11C88E0F7019D
:1000C00011928A95E9F729833A834B835C836D8388
:1000D0007E83AF83988780E2801BE82FFF27E7FDB0
:1000E000F0954D815E816F817885181684F01D86AC
:1000F0001E861F86188A882799278E1B9F0B04C08F
:1001000076956795579547958A95D2F728C0202F01
:10011000332727FD3095DB01CA01022E04C0B695B6
:10012000A795979587950A94D2F78D879E87AF8775
:10013000B88B04C0440F551F661F771FEA95D2F78E
:1001400089819A81AB81BC8104C0B695A7959795AA
:1001500087952A95D2F7482B592B6A2B7B2B4987F9
:100160005A876B877C8729853A854B855C856D85A9
:100170007E85AF8598898A2F60960FB6F894DEBF8A
:100180000FBECDBFCF91DF910F91FF90EF900895FB
:10019000EF92FF920F93DF93CF93CDB7DEB76097C7
:1001A0000FB6F894DEBF0FBECDBFA82F002309F411
:1001B00061C07E010894E11CF11C88E0F7011192F6
:1001C0008A95E9F729833A834B835C836D837E8329
:1001D000AF83988780E2801BE82FFF27E7FDF0952B
:1001E00049815A816B817C81181684F019861A86A0
:1001F0001B861C86882799278E1B9F0B04C0440FE3
:10020000551F661F771F8A95D2F728C0202F3327E6
:1002100027FD3095DB01CA01022E04C0880F991F0B
:10022000AA1FBB1F0A94D2F789879A87AB87BC871E
:1002300004C07695679557954795EA95D2F78D81D5
:100240009E81AF81B88504C0880F991FAA1FBB1F6C
:100250002A95D2F7482B592B6A2B7B2B4D875E872B
:100260006F87788B29853A854B855C856D857E8582
:10027000AF8598898A2F60960FB6F894DEBF0FBEBF
:10028000CDBFCF91DF910F91FF90EF900895EF9246
:10029000FF920F931F937B018C0120E030E040E040
:1002A0005FE40E94630B88238CF0C801B70120E053
:1002B00030E040E05FE40E942F090E94C30B9B01E5
:1002C000AC01205030404040504806C0C801B70142
:1002D0000E94C30B9B01AC01B901CA011F910F9190
:1002E000FF90EF900895ABE5B0E0E9E7F1E00C9402
:1002F0002B31A8E04E010894811C911CF4016A2E58
:1003000011926A94E9F729833A834B835C836D8366
:100310007E838F839887CE010996FC011192AA955E
:10032000E9F7A986BA86CB86DC86ED86FE860F873E
:10033000188B29843A844B845C84AD84BE84CF843A
:10034000D88829813A814B815C8169962FAF699762
:100350006A963FAF6A976B964FAF6B976C965FAF9D
:100360006C976C966CAC7DAC8EAC9FAC6C9769AAAC
:100370007AAA8BAA9CAA6D817E818F8198853B0188
:100380004C016DAA7EAA8FAA98AEA114B104C10433
:10039000D10409F004C3621473048404950408F0C2
:1003A00000C100E0201600E0300601E0400600E059
:1003B000500688F41FEF211631044104510439F02E
:1003C00030F088E0E82EF12C012D112D18C0EE241C
:1003D000FF24870114C040E0241640E0340640E0CA
:1003E000440641E0540630F0B8E1EB2EF12C012D2B
:1003F000112D05C0A0E1EA2EF12C012D112DD20105
:10040000C1010E2C04C0B695A795979587950A94BF
:10041000D2F781569E4FDC012C9180E290E0A0E063
:10042000B0E08E199F09A00BB10B5C016D01A21AFF
:10043000B108C108D108A9AEBAAECBAEDCAEA114EA
:10044000B104C104D10409F43FC069AD062E04C053
:10045000220C331C441C551C0A94D2F7A4019301AE
:10046000062E04C0220F331F441F551F0A94D2F7D3
:1004700080E290E08A199B096C96CCACDDACEEACC6
:10048000FFAC6C9704C0F694E794D794C7948A9510
:10049000D2F787017601E22AF32A042B152BEDAA65
:1004A000FEAA0FAB18AF6C968CAD9DADAEADBFADD7
:1004B0006C9704C0880F991FAA1FBB1F6A95D2F7BB
:1004C00089AB9AABABABBCAB320188249924B201A7
:1004D000A1016070707021964CAF5DAF6EAF7FAFC1
:1004E00021976DA97EA98FA998ADA40193010E94BF
:1004F00009317B018C016DA97EA98FA998ADA4015A
:1005000093010E940931CA01B90121962CAD3DAD7C
:100510004EAD5FAD21970E94D6309B01AC018701A3
:10052000FF24EE24A9A8BAA8CBA8DCA8C601AA2754
:10053000BB2757016801A82AB92ACA2ADB2AA216B2
:10054000B306C406D50690F4A20CB31CC41CD51C7B
:10055000A214B304C404D50448F0A216B306C4061A
:10056000D50620F4A20CB31CC41CD51CA21AB30AD5
:10057000C40AD50AC601B501A40193010E9409313C
:100580007B018C01C601B501A40193010E940931D0
:10059000CA01B90121962CAD3DAD4EAD5FAD21979D
:1005A000BAC1211431044104510471F461E070E0D6
:1005B00080E090E020E030E040E050E00E9409312F
:1005C000C901DA011C012D0100E0201600E030060F
:1005D00001E0400600E0500688F41FEF21163104C8
:1005E0004104510439F030F068E0E62EF12C012D81
:1005F000112D18C0EE24FF24870114C040E02416FA
:1006000040E0340640E0440641E0540630F058E152
:10061000E52EF12C012D112D05C040E1E42EF12C29
:10062000012D112DD201C1010E2C04C0B695A79544
:10063000979587950A94D2F781569E4FDC012C91AD
:1006400030E2A32EB12CC12CD12CD601C5018E19BC
:100650009F09A00BB10B7C018D01E21AF108010981
:100660001109E9AEFAAE0BAF1CAFE114F1040105BC
:10067000110539F464015301A218B308C408D50860
:10068000E2C0F9AC6896FFAE68970F2C04C0220C4C
:10069000331C441C551C0A94D2F78A2D8F1964010F
:1006A0005301082E04C0D694C794B794A7940A9413
:1006B000D2F7A401930104C0220F331F441F551F1A
:1006C000FA94D2F76C966CAC7DAC8EAC9FAC6C9708
:1006D00004C096948794779467948A95D2F784019E
:1006E0007301E22AF32A042B152BEDA6FEA60FA711
:1006F00018AB320188249924B201A1016070707096
:1007000025964CAF5DAF6EAF7FAF2597C601B501A3
:10071000A40193010E9409317B018C01C601B5013E
:10072000A40193010E940931CA01B90125962CAD9B
:100730003DAD4EAD5FAD25970E94D6309B01AC011B
:100740008701FF24EE24ADA4BEA4CFA4D8A8C6017F
:10075000AA27BB275C016D01AE28BF28C02AD12A79
:10076000A216B306C406D50690F4A20CB31CC41C92
:10077000D51CA214B304C404D50448F0A216B306D1
:10078000C406D50620F4A20CB31CC41CD51CA21AA6
:10079000B30AC40AD50AC601B501A40193010E9497
:1007A00009317B018C01C601B501A40193010E94AE
:1007B0000931CA01B90125962CAD3DAD4EAD5FADF5
:1007C00025970E94D6309B01AC018701FF24EE24BF
:1007D0008DA59EA5AFA5B8A9A070B07057016801FE
:1007E000A82AB92ACA2ADB2AA216B306C406D50645
:1007F00090F4A20CB31CC41CD51CA214B304C404F2
:10080000D50448F0A216B306C406D50620F4A20CFF
:10081000B31CC41CD51C6C96ECACFDAC0EAD1FAD6E
:100820006C9768960FAC689704C0EE0CFF1C001F15
:10083000111F0A94D2F7E9AAFAAA0BAB1CABA21AB1
:10084000B30AC40AD50A320188249924B201A1014D
:100850006070707029964CAF5DAF6EAF7FAF299717
:10086000C601B501A40193010E9409317B018C01ED
:10087000C601B501A40193010E940931CA01B90161
:1008800029962CAD3DAD4EAD5FAD29970E94D63077
:100890009B01AC018701FF24EE24A9A8BAA8CBA82C
:1008A000DCA8C601AA27BB2757016801A82AB92AD4
:1008B000CA2ADB2AA216B306C406D50690F4A20CF7
:1008C000B31CC41CD51CA214B304C404D50448F042
:1008D000A216B306C406D50620F4A20CB31CC41C91
:1008E000D51CA21AB30AC40AD50AC601B501A401CF
:1008F00093010E9409317B018C01C601B501A4015D
:1009000093010E940931CA01B90129962CAD3DAD70
:100910004EAD5FAD29970E94D6309B01AC01870197
:10092000FF24EE2489A99AA9ABA9BCA9A070B07034
:10093000E82AF92A0A2B1B2BE216F30604071507EF
:1009400090F4E20CF31C041D151DE214F3040405DD
:10095000150548F0E216F3060407150720F4E20C2B
:10096000F31C041D151DE21AF30A040B150BD80124
:10097000C70109AC04C0B695A795979587950A94C9
:10098000D2F7898B9A8BAB8BBC8B1D8A1E8A1F8AF0
:10099000188E282F3A894B895C896D890CC36A149B
:1009A0007B048C049D0408F409C300E0A01600E059
:1009B000B00601E0C00600E0D00688F41FEFA116E3
:1009C000B104C104D10439F030F028E0E22EF12C5A
:1009D000012D112D18C0EE24FF24870114C040E022
:1009E000A41640E0B40640E0C40641E0D40630F06E
:1009F00098E1E92EF12C012D112D05C080E1E82EA2
:100A0000F12C012D112DD601C5010E2C04C0B69577
:100A1000A795979587950A94D2F781569E4FDC014A
:100A20002C9180E290E0A0E0B0E08E199F09A00B2D
:100A3000B10B821B9109A109B1090097A105B1056C
:100A400009F04FC0A614B704C804D90458F06C9636
:100A5000ECACFDAC0EAD1FAD6C97E214F3040405D5
:100A6000150568F16C96ECACFDAC0EAD1FAD6C9746
:100A7000E218F30804091509A40193012A193B0996
:100A80004C095D09AA24BB2465016C966CAD7DAD53
:100A90008EAD9FAD6C976E157F058007910728F48A
:100AA000B1E0AB2EB12CC12CD12CDA01C9018A19CD
:100AB0009B09AC09BD098DAB9EABAFABB8AFE98A62
:100AC000FA8A0B8B1C8B6DA87EA88FA898AC6D8AB8
:100AD0007E8A8F8A988E2E2D3A894B895C896DA9E2
:100AE0006AC267968FAF6797A6019501082E04C06A
:100AF000220F331F441F551F0A94D2F7A0E2AA2EDB
:100B0000A81A6696AFAE6697D201C10104C0B69529
:100B1000A79597958795AA94D2F76C017D01C22A73
:100B2000D32AE42AF52AC9A6DAA6EBA6FCA68201F6
:100B3000710167960FAC679704C0EE0CFF1C001F95
:100B4000111F0A94D2F7EDA2FEA20FA318A7640109
:100B5000530166960FAC669704C0D694C794B794B9
:100B6000A7940A94D2F7A401930167960FAC6797F4
:100B700004C0220F331F441F551F0A94D2F76C96EE
:100B80008CAD9DADAEADBFAD6C9766960FAC669764
:100B900004C0B695A795979587950A94D2F73C011E
:100BA0004D01622A732A842A952A69A27AA28BA20D
:100BB0009CA26C96ECACFDAC0EAD1FAD6C9767962D
:100BC0000FAC679704C0EE0CFF1C001F111F0A94A6
:100BD000D2F7ED8EFE8E0F8F18A349A55AA56BA5EF
:100BE0007CA53B0188249924607070702D964CAFD1
:100BF0005DAF6EAF7FAF2D97C601B501A401930124
:100C00000E9409317B018C01C601B501A401930149
:100C10000E940931C901DA011C012D01C201B10193
:100C20002D962CAD3DAD4EAD5FAD2D970E94D630CB
:100C30009B01AC018701FF24EE24A9A0BAA0CBA0A0
:100C4000DCA0C601AA27BB2757016801A82AB92A38
:100C5000CA2ADB2AA216B306C406D50600F50894F4
:100C60002108310841085108E9A4FAA40BA51CA5E4
:100C7000AE0CBF1CC01ED11EAE14BF04C006D106F0
:100C800070F0A216B306C406D50648F408942108ED
:100C9000310841085108AE0CBF1CC01ED11EA21A5B
:100CA000B30AC40AD50AC601B501A40193010E9482
:100CB00009317B018C01C601B501A40193010E9499
:100CC0000931C901DA013C014D01C401B3012D967E
:100CD0002CAD3DAD4EAD5FAD2D970E94D6309B0142
:100CE000AC018701FF24EE2489A19AA1ABA1BCA18C
:100CF000A070B07057016801A82AB92ACA2ADB2A55
:100D0000A216B306C406D50600F50894610871085A
:100D10008108910869A57AA58BA59CA5A60EB71E8A
:100D2000C81ED91EA616B706C806D90670F0A216A8
:100D3000B306C406D50648F4089461087108810812
:100D40009108A60EB71EC81ED91ED601C501821B6A
:100D5000930BA40BB50B898F9A8FAB8FBC8FD101EE
:100D60009927882784017301E82AF92A0A2B1B2B6B
:100D70004FEFA42E4FEFB42EC12CD12CAE20BF20AC
:100D8000C022D1227801002711276DA07EA08FA05C
:100D900098A44FEF5FEF60E070E064227522862236
:100DA00097228DA19EA1AFA1B8A5BD018827992743
:100DB00065966CAF7DAF8EAF9FAF6597C601B501ED
:100DC000A40193010E94D63061966CAF7DAF8EAFC7
:100DD0009FAF6197C601B50165962CAD3DAD4EAD97
:100DE0005FAD65970E94D6301B012C01C801B70189
:100DF000A40193010E94D6305B016C01C801B701C8
:100E000065962CAD3DAD4EAD5FAD65970E94D63079
:100E10007B018C01A6019501220D331D441D551D3A
:100E200061966CAC7DAC8EAC9FAC6197C401AA2777
:100E3000BB27280F391F4A1F5B1F2A153B054C058E
:100E40005D0548F4812C912CE1E0AE2EB12CE80C2C
:100E5000F91C0A1D1B1DCA01AA27BB2757016801DF
:100E6000A80EB91ECA1EDB1EA901332722276196D0
:100E70008CAD9DADAEADBFAD6197A070B070280FC9
:100E8000391F4A1F5B1FE98CFA8C0B8D1C8DEA14ED
:100E9000FB040C051D0570F0AE14BF04C006D1069E
:100EA00069F56D8D7E8D8F8D98A16217730784070C
:100EB000950720F5DA01C9016DA07EA08FA098A446
:100EC00086199709A809B909E9A4FAA40BA51CA5D4
:100ED000AE18BF08C00AD10AEE24FF2487012817E4
:100EE00039074A075B0728F421E0E22EF12C012D97
:100EF000112DAE18BF08C00AD10A02C0DA01C9011B
:100F00006D8C7E8C8F8C98A0681A790A8A0A9B0A4D
:100F1000498D5A8D6B8D7C8D4A195B096C097D0951
:100F20005A016B012224332421016D8D7E8D8F8D1A
:100F300098A1661577058805990528F481E0282E83
:100F4000312C412C512C86017501E218F30804095B
:100F50001509A801970166960FAC669704C0220F89
:100F6000331F441F551F0A94D2F7D401C30167965B
:100F70000FAC679704C0B695A795979587950A9487
:100F8000D2F7282B392B4A2B5B2B298B3A8B4B8B97
:100F90005C8B67960FAC679704C016950795F7941E
:100FA000E7940A94D2F7ED8AFE8A0F8B188F3A895C
:100FB0004B895C896E2D7E898F89988DC55ADF4F4C
:100FC000E2E10C944731A0E0B0E0E9EEF7E00C94E8
:100FD0002B31DC012B01FA019C91923008F439C1CC
:100FE000EB018881823008F433C1943069F4843095
:100FF00009F02FC111969C9111978981981709F4D6
:1010000028C1A7E9B1E025C1843009F421C18230AB
:10101000A9F4923009F01DC19A01AD0188E0EA01FE
:101020000990AE01E90109929E018150C1F7E201E8
:10103000898111969C918923818308C1923009F49A
:1010400007C112962D903C901397EB018A819B81EA
:101050001496AD90BD90CD90DC901797EC80FD80FC
:101060000E811F819101281B390BB90137FF04C084
:1010700066277727621B730B603271050CF061C025
:10108000121613066CF537014801062E04C096941B
:101090008794779467940A94D2F721E030E040E097
:1010A00050E004C0220F331F441F551F6A95D2F72A
:1010B00021503040404050402E213F2140235123B9
:1010C000211531054105510521F021E030E040E0D6
:1010D00050E079018A01E628F728082919293CC03F
:1010E000232BD1F1260E371E35014601062E04C0F2
:1010F00096948794779467940A94D2F721E030E02D
:1011000040E050E004C0220F331F441F551F6A9572
:10111000D2F721503040404050402A213B214C2101
:101120005D21211531054105510521F021E030E017
:1011300040E050E059016A01A628B728C828D928FC
:101140000BC0821593052CF01C01AA24BB24650159
:1011500003C0EE24FF24870111969C91D2011196C1
:101160008C91981709F445C0992339F0A80197018B
:101170002A193B094C095D0906C0A60195012E19E3
:101180003F09400B510B57FD08C011823382228268
:1011900024833583468357831DC081E08183338256
:1011A000228288279927DC01821B930BA40BB50BA5
:1011B00084839583A683B7830DC0220F331F441FFA
:1011C000551F2483358346835783828193810197FA
:1011D000938382832481358146815781DA01C90155
:1011E0000197A109B1098F5F9F4FAF4FBF4328F30C
:1011F0000BC0918333822282EA0CFB1C0C1D1D1D47
:10120000E482F5820683178383E08083248135811D
:101210004681578157FF1AC0C901AA2797FDA0959B
:10122000BA2F81709070A070B07056954795379521
:101230002795822B932BA42BB52B84839583A68390
:10124000B78382819381019693838283DF0101C0FA
:10125000D201CD01CDB7DEB7E2E10C944731A0E277
:10126000B0E0E5E3F9E00C94373169837A838B834E
:101270009C832D833E834F835887E9E0EE2EF12C2B
:10128000EC0EFD1ECE010196B7010E94EC0C8E0102
:101290000F5E1F4FCE010596B8010E94EC0C8A89A3
:1012A00091E089278A8BC701B801AE01475E5F4F85
:1012B0000E94E3070E94170CA096E6E00C945331BD
:1012C000A0E2B0E0E6E6F9E00C94373169837A8376
:1012D0008B839C832D833E834F835887F9E0EF2EC9
:1012E000F12CEC0EFD1ECE010196B7010E94EC0C14
:1012F0008E010F5E1F4FCE010596B8010E94EC0CC7
:10130000C701B801AE01475E5F4F0E94E3070E942C
:10131000170CA096E6E00C945331A0E2B0E0E3E9AC
:10132000F9E00C942B3169837A838B839C832D8322
:101330003E834F835887CE010196BE01675F7F4F82
:101340000E94EC0CCE010596BE016F5E7F4F0E949D
:10135000EC0C9985923088F089898230C8F09430FD
:1013600019F4823051F404C0843029F4923081F4AD
:1013700087E991E0C6C0923049F420E09A858A89D5
:10138000981321E02A87CE010996BBC0823049F428
:1013900020E09A858A89981321E02A8BCE01419614
:1013A000B0C02D843E844F8458886D887E888F8895
:1013B000988CEE24FF248701AA24BB24650140E019
:1013C00050E060E070E0E0E0F0E0C101817090701A
:1013D000892BE9F0E60CF71C081D191D9A01AB01D9
:1013E0002A0D3B1D4C1D5D1D80E090E0A0E0B0E0AB
:1013F000E614F7040805190520F481E090E0A0E068
:10140000B0E0BA01A901480F591F6A1F7B1FAA0C3F
:10141000BB1CCC1CDD1C97FE08C081E090E0A0E066
:10142000B0E0A82AB92ACA2ADB2A3196E032F105AF
:1014300049F0660C771C881C991C56944794379485
:101440002794C3CFFA85EA892B893C898B859C85B3
:10145000280F391F2E5F3F4F17C0CA01817090704F
:10146000892B61F016950795F794E79480E090E05A
:10147000A0E0B0E8E82AF92A0A2B1B2B769567959D
:10148000579547952F5F3F4F77FDE7CF0CC0440F2F
:10149000551F661F771F17FD4160EE0CFF1C001FD4
:1014A000111F21503040403090E0590790E069070B
:1014B00090E4790760F32B8F3C8FDB01CA018F77B3
:1014C0009070A070B07080349105A105B10561F4F1
:1014D00047FD0AC0E114F1040105110529F0405C43
:1014E0005F4F6F4F7F4F40781A8EFE1711F081E0EB
:1014F0008A8F4D8F5E8F6F8F78A383E0898FCE01A7
:1015000049960E94170CA096E2E10C944731A8E19D
:10151000B0E0EDE8FAE00C94333169837A838B8391
:101520009C832D833E834F835887B9E0EB2EF12CAB
:10153000EC0EFD1ECE010196B7010E94EC0C8E014F
:101540000F5E1F4FCE010596B8010E94EC0C298555
:10155000223008F47EC03989323010F4B8017CC0E2
:101560008A859A8989278A87243011F0223031F4BC
:10157000231709F06EC067E971E06EC0343039F4AA
:101580001D861E861F86188A1C861B8604C0323064
:1015900021F484E08987B7015FC02B853C858B8966
:1015A0009C89281B390B3C872B87ED84FE840F8593
:1015B0001889AD88BE88CF88D88CEA14FB040C0546
:1015C0001D0540F4EE0CFF1C001F111F2150304080
:1015D0003C872B8720E030E040E050E080E090E066
:1015E000A0E0B0E460E070E0EA14FB040C051D0527
:1015F00040F0282B392B4A2B5B2BEA18FB080C09EF
:101600001D09B695A79597958795EE0CFF1C001FB1
:10161000111F6F5F7F4F6F31710531F7DA01C9011B
:101620008F779070A070B07080349105A105B105DE
:1016300061F427FD0AC0E114F1040105110529F048
:10164000205C3F4F4F4F5F4F20782D873E874F875D
:10165000588BBE01675F7F4FCB010E94170C6896C5
:10166000EAE00C944F31A8E1B0E0E9E3FBE00C9430
:10167000373169837A838B839C832D833E834F83A9
:10168000588789E0E82EF12CEC0EFD1ECE01019664
:10169000B7010E94EC0C8E010F5E1F4FCE01059624
:1016A000B8010E94EC0C8985823040F08989823033
:1016B00028F0C701B8010E94640D01C08FEF689641
:1016C000E6E00C945331A8E1B0E0E9E6FBE00C94CD
:1016D000373169837A838B839C832D833E834F8349
:1016E000588789E0E82EF12CEC0EFD1ECE01019604
:1016F000B7010E94EC0C8E010F5E1F4FCE010596C4
:10170000B8010E94EC0C8985823040F089898230D2
:1017100028F0C701B8010E94640D01C08FEF6896E0
:10172000E6E00C945331A8E1B0E0E9E9FBE00C9469
:10173000373169837A838B839C832D833E834F83E8
:10174000588789E0E82EF12CEC0EFD1ECE010196A3
:10175000B7010E94EC0C8E010F5E1F4FCE01059663
:10176000B8010E94EC0C8985823040F08989823072
:1017700028F0C701B8010E94640D01C081E068969D
:10178000E6E00C945331ACE0B0E0E9ECFBE00C9403
:101790003B3169837A838B839C83CE010196BE01A2
:1017A0006B5F7F4F0E94EC0C8D81823061F1823043
:1017B00050F1843021F48E81882351F12EC02F8185
:1017C000388537FD20C06E812F3131051CF066232E
:1017D000F9F023C08EE190E0821B930B29853A85B6
:1017E0004B855C8504C056954795379527958A9516
:1017F000D2F76623B1F050954095309521953F4F33
:101800004F4F5F4F0EC020E030E040E050E009C095
:101810002FEF3FEF4FEF5FE704C020E030E040E004
:1018200050E8B901CA012C96E2E00C945731DF92DE
:10183000EF92FF920F931F93FC01E480F5800681E5
:101840001781D1808081823048F480E090E0A0E16F
:10185000B0E0E82AF92A0A2B1B2BA5C0843009F432
:101860009FC0823021F4EE24FF24870105C0E114DB
:10187000F1040105110519F4E0E0F0E096C0628181
:1018800073819FEF623879070CF05BC022E83FEF6D
:10189000261B370B2A3131052CF020E030E040E0E8
:1018A00050E02AC0B801A701022E04C076956795C2
:1018B000579547950A94D2F781E090E0A0E0B0E018
:1018C00004C0880F991FAA1FBB1F2A95D2F7019742
:1018D000A109B1098E219F21A023B1230097A10561
:1018E000B10521F081E090E0A0E0B0E09A01AB0109
:1018F000282B392B4A2B5B2BDA01C9018F7790708B
:10190000A070B07080349105A105B10539F427FFAE
:1019100009C0205C3F4F4F4F5F4F04C0215C3F4FD9
:101920004F4F5F4FE0E0F0E02030A0E03A07A0E04A
:101930004A07A0E45A0710F0E1E0F0E079018A01DB
:1019400027C06038710564F5FB01E158FF4FD801ED
:10195000C7018F779070A070B07080349105A10599
:10196000B10539F4E7FE0DC080E490E0A0E0B0E0FE
:1019700004C08FE390E0A0E0B0E0E80EF91E0A1F7B
:101980001B1F17FF05C016950795F794E79431962E
:1019900087E016950795F794E7948A95D1F705C0E7
:1019A000EE24FF248701EFEFF0E06E2F67956627A6
:1019B0006795902F9F77D794DD24D7948E2F8695A7
:1019C000492F462B582F5D29B701CA011F910F914E
:1019D000FF90EF90DF900895FC01DB014081518181
:1019E0002281622F6F7770E0221F2227221F9381AE
:1019F000892F880F822B282F30E0991F9927991F54
:101A000011969C93119721153105A9F541155105A2
:101A10006105710511F482E037C082E89FEF1396EB
:101A20009C938E9312979A01AB0167E0220F331FAC
:101A3000441F551F6A95D1F783E08C930DC0220F88
:101A4000331F441F551F12968D919C911397019738
:101A500013969C938E931297203080E0380780E095
:101A6000480780E4580758F314962D933D934D93FF
:101A70005C93179708952F3F310579F4411551056F
:101A80006105710519F484E08C93089564FF03C027
:101A900081E08C9312C01C9210C02F5730401396D7
:101AA0003C932E93129783E08C9387E0440F551F4D
:101AB000661F771F8A95D1F7706414964D935D93D6
:101AC0006D937C93179708951F93DC01FB019C9104
:101AD000923008F447C08081823008F443C09430CB
:101AE00051F411961C91843099F58181682F70E032
:101AF000611B71093FC0843021F0923031F4823093
:101B0000B9F18181882389F12DC011961C9111971B
:101B10008230F1F081811817D9F412962D913C9101
:101B20001397828193818217930794F028173907BE
:101B3000BCF014968D919D910D90BC91A02D2481A7
:101B4000358146815781281739074A075B0718F402
:101B5000112341F00AC082179307A407B50740F488
:101B6000112319F061E070E005C06FEF7FEF02C054
:101B700060E070E0CB011F910895DF93CF930F9247
:101B8000CDB7DEB7898389810E94B92A0F90CF91A2
:101B9000DF910895DF93CF93CDB7DEB763970FB68C
:101BA000F894DEBF0FBECDBF898B7B8B6A8B81E043
:101BB000888B81E08F870E94322B8F878F858130C1
:101BC00009F0188A8A899B89892F992780650E9444
:101BD000822B8F878F85813009F0188A8A890E942D
:101BE000F02B8F878F85813009F0188A89890E94B0
:101BF000F02B8F878F85813009F0188A0E944C2C3A
:101C000080E090E0A0E2B1E48B879C87AD87BE873F
:101C10006B857C858D859E8520E030E04AEF54E41D
:101C20000E948D09DC01CB018F839887A987BA8731
:101C30006F81788589859A8520E030E040E85FE310
:101C40000E94930B88232CF481E090E09E838D8387
:101C50003FC06F81788589859A8520E03FEF4FE707
:101C600057E40E94330B18164CF56B857C858D85E7
:101C70009E8520E030E040E251E40E948D09DC01C5
:101C8000CB01BC01CD010E944701DC01CB019E8349
:101C90008D830FC088EC90E09C838B838B819C812B
:101CA0000197F1F79C838B838D819E8101979E83A1
:101CB0008D838D819E81009769F714C06F8178852F
:101CC00089859A850E944701DC01CB019E838D8323
:101CD0008D819E819A83898389819A810197F1F709
:101CE0009A838983888963960FB6F894DEBF0FBE06
:101CF000CDBFCF91DF910895DF93CF93CDB7DEB7FE
:101D000064970FB6F894DEBF0FBECDBF9A8B898B58
:101D10007C8B6B8B81E0888B81E08F8789899A89A6
:101D2000009709F4ACC00E94322B8F878F858130D9
:101D300009F0188A8B899C89892F992780650E94D0
:101D4000822B8F878F85813009F0188A8B890E94BA
:101D5000F02B8F878F85813009F0188A0E945A2BCB
:101D60008F878F85813009F0188A8B899C89892F0C
:101D7000992780650E94B92B8F878F85813009F064
:101D8000188A89899A890E94182C8F878F858130BB
:101D900009F0188A0E944C2C80E090E0A0E2B1E4A7
:101DA0008B879C87AD87BE876B857C858D859E855F
:101DB00020E030E04AEF54E40E948D09DC01CB01C1
:101DC0008F839887A987BA876F81788589859A8557
:101DD00020E030E040E85FE30E94930B88232CF47E
:101DE00081E090E09E838D833FC06F8178858985F7
:101DF0009A8520E03FEF4FE757E40E94330B181617
:101E00004CF56B857C858D859E8520E030E040E239
:101E100051E40E948D09DC01CB01BC01CD010E947F
:101E20004701DC01CB019E838D830FC088EC90E0DD
:101E30009C838B838B819C810197F1F79C838B839F
:101E40008D819E8101979E838D838D819E810097D8
:101E500069F716C06F81788589859A850E94470148
:101E6000DC01CB019E838D838D819E819A83898342
:101E700089819A810197F1F79A83898301C0188A31
:101E8000888964960FB6F894DEBF0FBECDBFCF91A0
:101E9000DF910895DF93CF93CDB7DEB7A3970FB649
:101EA000F894DEBF0FBECDBF9BA38AA381E088A3B9
:101EB0001D8E8AA19BA1009709F46FC1EAA1FBA125
:101EC0008FEF80831F8E64C18F8D882F90E0FC017F
:101ED000ED55FD4F20818F8D882F90E0FC01E1565C
:101EE000FD4F9081822F692F40E00E94061C1E8EBC
:101EF00032C18E8D882F90E0FC01E555FD4F408169
:101F00008E8D882F90E0FC01E955FD4F90819E0158
:101F10002F5D3F4F842F692FA9010E941C1D89A1AD
:101F2000882309F015C180E090E0A0EAB1E4898F30
:101F30009A8FAB8FBC8F698D7A8D8B8D9C8D20E0B5
:101F400030E04AEF54E40E948D09DC01CB018D8B17
:101F50009E8BAF8BB88F6D897E898F89988D20E09D
:101F600030E040E85FE30E94930B88232CF481E08B
:101F700090E09C8B8B8B3FC06D897E898F89988D7B
:101F800020E03FEF4FE757E40E94330B18164CF563
:101F9000698D7A8D8B8D9C8D20E030E040E251E49C
:101FA0000E948D09DC01CB01BC01CD010E944701DB
:101FB000DC01CB019C8B8B8B0FC088EC90E09A8B63
:101FC000898B89899A890197F1F79A8B898B8B89FB
:101FD0009C8901979C8B8B8B8B899C89009769F7D7
:101FE0002BC06D897E898F89988D0E944701DC0105
:101FF000CB019C8B8B8B8B899C89988B8F878F8552
:1020000098890197F1F7988B8F8716C08E8D882F4E
:1020100090E0FC01E555FD4F40818E8D882F90E0CA
:10202000FC01E955FD4F90819E012F5D3F4F842FAC
:10203000692FA9010E941C1D89A1882339F380E022
:1020400090E0A0EAB1E48B879C87AD87BE876B8563
:102050007C858D859E8520E030E04AEF54E40E9427
:102060008D09DC01CB018F839887A987BA876F819F
:10207000788589859A8520E030E040E85FE30E941A
:10208000930B88232CF481E090E09E838D833FC0E6
:102090006F81788589859A8520E03FEF4FE757E487
:1020A0000E94330B18164CF56B857C858D859E85BB
:1020B00020E030E040E251E40E948D09DC01CB01D8
:1020C000BC01CD010E944701DC01CB019E838D83C1
:1020D0000FC088EC90E09C838B838B819C8101975F
:1020E000F1F79C838B838D819E8101979E838D83E5
:1020F0008D819E81009769F714C06F8178858985ED
:102100009A850E944701DC01CB019E838D838D81DE
:102110009E819A83898389819A810197F1F79A83B5
:1021200089838F8D482F50E08E8D282F30E0CA0193
:10213000880F991F880F991F820F931FFC01E1558B
:10214000FD4F8081EAA1FBA1808381E08D8F07C0D4
:102150008E8D8F5F8E8F8E8D843008F4CACE8F8DDA
:10216000882F90E0FC01ED55FD4F20818F8D882F49
:1021700090E0FC01E156FD4F9081822F692F41E0F4
:102180000E94061C8D8D882349F48F8D8F5F8F8F61
:102190008F8D843008F498CE01C018A288A1A39630
:1021A0000FB6F894DEBF0FBECDBFCF91DF9108957B
:1021B0000F931F93DF93CF93CDB7DEB7C655D040B3
:1021C0000FB6F894DEBF0FBECDBFFE01ED5AFF4F34
:1021D00080E090E0A8EFB1E480839183A283B38391
:1021E0008E01015B1F4FFE01ED5AFF4F608171812F
:1021F000828193812BEA3AEA4AE250E40E948D09F7
:10220000DC01CB01F80180839183A283B383FE01BB
:10221000E15BFF4F608171818281938120E030E03A
:1022200040E85FE30E94930B882334F4FE01E25BF5
:10223000FF4F81E08083E0C0FE01E15BFF4F6081E2
:1022400071818281938120E030E04FE753E40E9466
:10225000330B18160CF0C0C0FE01ED5AFF4F608121
:1022600071818281938120E030E04AE754E40E944A
:10227000870ADC01CB01FE01E65BFF4F808391837F
:10228000A283B3838E010A5B1F4FFE01E65BFF4F03
:10229000608171818281938120E030E04AEF54E4D3
:1022A0000E948D09DC01CB01F80180839183A28318
:1022B000B383FE01EA5BFF4F60817181828193816C
:1022C00020E030E040E85FE30E94930B882344F471
:1022D000FE01EC5BFF4F81E090E09183808364C05E
:1022E000FE01EA5BFF4F608171818281938120E072
:1022F0003FEF4FE757E40E94330B18160CF043C032
:10230000FE01E65BFF4F608171818281938120E055
:1023100030E040E251E40E948D09DC01CB018E01E6
:102320000C5B1F4FBC01CD010E944701DC01CB01BA
:10233000F801918380831FC0FE01EE5BFF4F88ECA4
:1023400090E091838083FE01EE5BFF4F808191815D
:102350000197F1F7FE01EE5BFF4F91838083DE0171
:10236000AC5BBF4FFE01EC5BFF4F80819181019719
:1023700011969C938E93FE01EC5BFF4F80819181BF
:102380000097D1F642C08E010C5B1F4FFE01EA5B45
:10239000FF4F60817181828193810E944701DC013E
:1023A000CB01F80191838083DE01A05CBF4FFE0169
:1023B000EC5BFF4F8081918111969C938E93FE017F
:1023C000E05CFF4F808191810197F1F7FE01E05CB5
:1023D000FF4F9183808319C08E01025B1F4FFE0166
:1023E000E15BFF4F60817181828193810E9447018F
:1023F000DC01CB01F8018083FE01E25BFF4F8081AD
:102400008FAF8FAD8A95F1F78FAF88E30E940B14E1
:1024100080E090E0A0E2B2E48BAF9CAFADAFBEAF86
:102420006BAD7CAD8DAD9EAD2BEA3AEA4AE250E44D
:102430000E948D09DC01CB018FAB98AFA9AFBAAF79
:102440006FA978AD89AD9AAD20E030E040E85FE358
:102450000E94930B88231CF481E08EAB91C06FA97E
:1024600078AD89AD9AAD20E030E04FE753E40E94AB
:10247000330B18160CF07BC06BAD7CAD8DAD9EADF3
:1024800020E030E04AE754E40E94870ADC01CB01F7
:102490008AAB9BABACABBDAB6AA97BA98CA99DA950
:1024A00020E030E04AEF54E40E948D09DC01CB01CA
:1024B0008EA79FA7A8ABB9AB6EA57FA588A999A940
:1024C00020E030E040E85FE30E94930B88232CF487
:1024D00081E090E09DA78CA73FC06EA57FA588A94D
:1024E00099A920E03FEF4FE757E40E94330B1816FD
:1024F0004CF56AA97BA98CA99DA920E030E040E2B7
:1025000051E40E948D09DC01CB01BC01CD010E9488
:102510004701DC01CB019DA78CA70FC088EC90E0A0
:102520009BA78AA78AA59BA50197F1F79BA78AA7D6
:102530008CA59DA501979DA78CA78CA59DA500970F
:1025400069F724C06EA57FA588A999A90E944701B3
:10255000DC01CB019DA78CA78CA59DA599A788A779
:1025600088A599A50197F1F799A788A70FC06FA92A
:1025700078AD89AD9AAD0E944701DC01CB018EABED
:102580008EA98FA38FA18A95F1F78FA38FE00E9468
:102590000B1480E090E0A0E2B2E48BA39CA3ADA377
:1025A000BEA36BA17CA18DA19EA12BEA3AEA4AE2CF
:1025B00050E40E948D09DC01CB018F8F98A3A9A361
:1025C000BAA36F8D78A189A19AA120E030E040E8FC
:1025D0005FE30E94930B88231CF481E08E8F91C0EF
:1025E0006F8D78A189A19AA120E030E04FE753E4F4
:1025F0000E94330B18160CF07BC06BA17CA18DA13F
:102600009EA120E030E04AE754E40E94870ADC0102
:10261000CB018A8F9B8FAC8FBD8F6A8D7B8D8C8D0C
:102620009D8D20E030E04AEF54E40E948D09DC01EA
:10263000CB018E8B9F8BA88FB98F6E897F89888DF8
:10264000998D20E030E040E85FE30E94930B8823FF
:102650002CF481E090E09D8B8C8B3FC06E897F894C
:10266000888D998D20E03FEF4FE757E40E94330BB0
:1026700018164CF56A8D7B8D8C8D9D8D20E030E099
:1026800040E251E40E948D09DC01CB01BC01CD0187
:102690000E944701DC01CB019D8B8C8B0FC088EC25
:1026A00090E09B8B8A8B8A899B890197F1F79B8BA2
:1026B0008A8B8C899D8901979D8B8C8B8C899D89B8
:1026C000009769F724C06E897F89888D998D0E9453
:1026D0004701DC01CB019D8B8C8B8C899D89998B6B
:1026E000888B888999890197F1F7998B888B0FC01E
:1026F0006F8D78A189A19AA10E944701DC01CB01CD
:102700008E8F8E8D8F878F858A95F1F78F8781E0E9
:102710000E940B1480E090E0A0E0B0E48B879C87DF
:10272000AD87BE876B857C858D859E8520E030E0FA
:102730004AEF54E40E948D09DC01CB018F83988716
:10274000A987BA876F81788589859A8520E030E0EE
:1027500040E85FE30E94930B88232CF481E090E033
:102760009E838D833FC06F81788589859A8520E01F
:102770003FEF4FE757E40E94330B18164CF56B857B
:102780007C858D859E8520E030E040E251E40E940A
:102790008D09DC01CB01BC01CD010E944701DC01A8
:1027A000CB019E838D830FC088EC90E09C838B834C
:1027B0008B819C810197F1F79C838B838D819E8116
:1027C00001979E838D838D819E81009769F714C048
:1027D0006F81788589859A850E944701DC01CB014C
:1027E0009E838D838D819E819A83898389819A813D
:1027F0000197F1F79A83898386E00E940B14CA5AE5
:10280000DF4F0FB6F894DEBF0FBECDBFCF91DF9183
:102810001F910F910895DF93CF93CDB7DEB76A97DD
:102820000FB6F894DEBF0FBECDBF8A8F81E0898FCF
:1028300081E060E040E00E94061C81E061E040E051
:102840000E94061C80E06A8D0E94B61D81E062E055
:1028500041E00E94061C80E090E0A0E8BFE38D8B81
:102860009E8BAF8BB88F6D897E898F89988D2BEA6F
:102870003AEA4AE250E40E948D09DC01CB01898BDF
:102880009A8BAB8BBC8B69897A898B899C8920E078
:1028900030E040E85FE30E94930B88231CF481E062
:1028A000888B91C069897A898B899C8920E030E086
:1028B0004FE753E40E94330B18160CF07BC06D8970
:1028C0007E898F89988D20E030E04AE754E40E94A9
:1028D000870ADC01CB018C879D87AE87BF876C851B
:1028E0007D858E859F8520E030E04AEF54E40E948C
:1028F0008D09DC01CB0188879987AA87BB8768850A
:1029000079858A859B8520E030E040E85FE30E947E
:10291000930B88232CF481E090E09F838E833FC04B
:10292000688579858A859B8520E03FEF4FE757E4EE
:102930000E94330B18164CF56C857D858E859F851E
:1029400020E030E040E251E40E948D09DC01CB013F
:10295000BC01CD010E944701DC01CB019F838E8326
:102960000FC088EC90E09D838C838C819D810197C2
:10297000F1F79D838C838E819F8101979F838E8346
:102980008E819F81009769F724C0688579858A8543
:102990009B850E944701DC01CB019F838E838E8142
:1029A0009F819B838A838A819B810197F1F79B8317
:1029B0008A830FC069897A898B899C890E94470123
:1029C000DC01CB01888B8889898389818A95F1F71D
:1029D000898381E062E040E00E94061C898D6A964E
:1029E0000FB6F894DEBF0FBECDBFCF91DF91089533
:1029F000DF93CF93CDB7DEB76A970FB6F894DEBFFB
:102A00000FBECDBF8A8F81E0898F81E060E041E019
:102A10000E94061C81E061E040E00E94061C80E00C
:102A20006A8D0E94B61D81E062E041E00E94061CB2
:102A300080E090E0A0E8BFE38D8B9E8BAF8BB88FDA
:102A40006D897E898F89988D2BEA3AEA4AE250E4B3
:102A50000E948D09DC01CB01898B9A8BAB8BBC8BDF
:102A600069897A898B899C8920E030E040E85FE3BE
:102A70000E94930B88231CF481E0888B91C06989A4
:102A80007A898B899C8920E030E04FE753E40E94EB
:102A9000330B18160CF07BC06D897E898F89988D59
:102AA00020E030E04AE754E40E94870ADC01CB01D1
:102AB0008C879D87AE87BF876C857D858E859F853A
:102AC00020E030E04AEF54E40E948D09DC01CB01A4
:102AD00088879987AA87BB87688579858A859B853A
:102AE00020E030E040E85FE30E94930B88232CF461
:102AF00081E090E09F838E833FC0688579858A85D9
:102B00009B8520E03FEF4FE757E40E94330B1816F8
:102B10004CF56C857D858E859F8520E030E040E218
:102B200051E40E948D09DC01CB01BC01CD010E9462
:102B30004701DC01CB019F838E830FC088EC90E0BE
:102B40009D838C838C819D810197F1F79D838C837C
:102B50008E819F8101979F838E838E819F810097B5
:102B600069F724C0688579858A859B850E9447011D
:102B7000DC01CB019F838E838E819F819B838A831F
:102B80008A819B810197F1F79B838A830FC06989B2
:102B90007A898B899C890E944701DC01CB01888B53
:102BA0008889898389818A95F1F7898381E062E048
:102BB00040E00E94061C898D6A960FB6F894DEBF2D
:102BC0000FBECDBFCF91DF910895DF93CF9300D09B
:102BD00000D00F92CDB7DEB78A836B8381E0898303
:102BE0008A81282F30E03D832C838C819D81813028
:102BF000910531F02C813D812230310531F00AC040
:102C00008B8180580E940B1406C08B8180540E94D7
:102C10000B1401C0198289810F900F900F900F90B3
:102C20000F90CF91DF910895DF93CF9300D000D024
:102C30000F92CDB7DEB79C838B836D8381E08A834F
:102C400019821FC08981482F50E08D81282F30E0E4
:102C500080E190E0821B930B4817590721F482E032
:102C600060E00E94E5158981282F30E08B819C81EE
:102C7000FC01E20FF31F80810E94F81489818F5FAD
:102C800089838981282F30E08B819C81FC01E20FB0
:102C9000F31F80818823B1F68A810F900F900F90E7
:102CA0000F900F90CF91DF910895DF93CF93CDB721
:102CB000DEB72B970FB6F894DEBF0FBECDBF9B8754
:102CC0008A8781E089878A859B859F838E8381E0BF
:102CD00090E09D838C831B828A859B85009789F475
:102CE00080E30E94F81457C08E819F812AE030E073
:102CF000B9010E94F530CB019F838E838B818F5F5A
:102D00008B838E819F81009779F71A8211C08C8105
:102D10009D819C01220F331FC901880F991F880FC5
:102D2000991F820F931F9D838C838A818F5F8A8373
:102D30008A81282F30E08B81882F90E00197281717
:102D400039072CF3198223C08A859B852C813D810C
:102D5000B9010E94F530CB0188878A859B852C813B
:102D60003D81B9010E94F5309B878A878C819D81C6
:102D70002AE030E0B9010E94F530CB019D838C83BD
:102D80008885805D0E94F81489818F5F898399818D
:102D90008B819817C8F289852B960FB6F894DEBF01
:102DA0000FBECDBFCF91DF910895DF93CF93CDB705
:102DB000DEB72E970FB6F894DEBF0FBECDBF81E011
:102DC0000E940B1480E090E0A8E4B2E48B879C871B
:102DD000AD87BE876B857C858D859E8520E030E044
:102DE0004AEF54E40E948D09DC01CB018F83988760
:102DF000A987BA876F81788589859A8520E030E038
:102E000040E85FE30E94930B88232CF481E090E07C
:102E10009E838D833FC06F81788589859A8520E068
:102E20003FEF4FE757E40E94330B18164CF56B85C4
:102E30007C858D859E8520E030E040E251E40E9453
:102E40008D09DC01CB01BC01CD010E944701DC01F1
:102E5000CB019E838D830FC088EC90E09C838B8395
:102E60008B819C810197F1F79C838B838D819E815F
:102E700001979E838D838D819E81009769F714C091
:102E80006F81788589859A850E944701DC01CB0195
:102E90009E838D838D819E819A83898389819A8186
:102EA0000197F1F79A83898381E02E960FB6F89403
:102EB000DEBF0FBECDBFCF91DF910895DF93CF93DB
:102EC000CDB7DEB72E970FB6F894DEBF0FBECDBFDD
:102ED00081E061E070E00E94CA0D0E94D51681E099
:102EE00062E00E94E51580E690E062E00E94141620
:102EF00082E062E00E94E5158BE690E062E00E94CD
:102F0000141680E090E0AAEFB4E48B879C87AD872D
:102F1000BE876B857C858D859E8520E030E04AEFFD
:102F200054E40E948D09DC01CB018F839887A98727
:102F3000BA876F81788589859A8520E030E040E8FE
:102F40005FE30E94930B88232CF481E090E09E8342
:102F50008D833FC06F81788589859A8520E03FEF1A
:102F60004FE757E40E94330B18164CF56B857C85B0
:102F70008D859E8520E030E040E251E40E948D097D
:102F8000DC01CB01BC01CD010E944701DC01CB017A
:102F90009E838D830FC088EC90E09C838B838B8114
:102FA0009C810197F1F79C838B838D819E81019792
:102FB0009E838D838D819E81009769F714C06F81F8
:102FC000788589859A850E944701DC01CB019E8323
:102FD0008D838D819E819A83898389819A810197CE
:102FE000F1F79A8389830E94D51681E060E00E9400
:102FF000E51587E790E060E00E94141682E060E04B
:103000000E94E5150E940D182E960FB6F894DEBFAB
:103010000FBECDBFCF91DF910895DF93CF93CDB792
:10302000DEB7E0970FB6F894DEBF0FBECDBF1BA68C
:10303000CE018C960E944A0F8CA58F3FC9F38CA5B8
:103040008D3309F48EC082E06BA50E94E5158CA536
:103050000E94F81480E090E0A8E4B2E48FA398A75F
:10306000A9A7BAA76FA178A589A59AA520E030E005
:103070004AEF54E40E948D09DC01CB018BA39CA391
:10308000ADA3BEA36BA17CA18DA19EA120E030E0E9
:1030900040E85FE30E94930B88232CF481E090E0EA
:1030A0009AA389A33FC06BA17CA18DA19EA120E022
:1030B0003FEF4FE757E40E94330B18164CF56FA112
:1030C00078A589A59AA520E030E040E251E40E946D
:1030D0008D09DC01CB01BC01CD010E944701DC015F
:1030E000CB019AA389A30FC088EC90E098A38F8F9F
:1030F0008F8D98A10197F1F798A38F8F89A19AA13D
:1031000001979AA389A389A19AA1009769F714C08E
:103110006BA17CA18DA19EA10E944701DC01CB0186
:103120009AA389A389A19AA19E8F8D8F8D8D9E8D43
:103130000197F1F79E8F8D8F82E06BA50E94E515B8
:103140008AE20E94F8148BA5282F30E04CA5CE010E
:103150008D96FC01E20FF31F40838BA58F5F8BA739
:1031600067CF8BA58430A9F00E94D51681E060E07E
:103170000E94E51585E890E060E00E94141682E068
:1031800060E00E94E51586E990E060E00E94141678
:1031900076C0CE018D960E94581B80E090E0A0EA98
:1031A000B0E4898F9A8FAB8FBC8F698D7A8D8B8DB0
:1031B0009C8D20E030E04AEF54E40E948D09DC0150
:1031C000CB018D8B9E8BAF8BB88F6D897E898F895C
:1031D000988D20E030E040E85FE30E94930B882365
:1031E0002CF481E090E09C8B8B8B3FC06D897E89B5
:1031F0008F89988D20E03FEF4FE757E40E94330B13
:1032000018164CF5698D7A8D8B8D9C8D20E030E001
:1032100040E251E40E948D09DC01CB01BC01CD01EB
:103220000E944701DC01CB019C8B8B8B0FC088EC8B
:1032300090E09A8B898B89899A890197F1F79A8B0B
:10324000898B8B899C8901979C8B8B8B8B899C8923
:10325000009769F714C06D897E898F89988D0E94C7
:103260004701DC01CB019C8B8B8B8B899C89988BD4
:103270008F878F8598890197F1F7988B8F870E94A8
:10328000D5168EE990E060E00E94141680E090E090
:10329000AAE7B4E48B879C87AD87BE876B857C8566
:1032A0008D859E8520E030E04AEF54E40E948D0930
:1032B000DC01CB018F839887A987BA876F817885D6
:1032C00089859A8520E030E040E85FE30E94930B17
:1032D00088232CF481E090E09E838D833FC06F8132
:1032E000788589859A8520E03FEF4FE757E40E9473
:1032F000330B18164CF56B857C858D859E8520E0FB
:1033000030E040E251E40E948D09DC01CB01BC01B8
:10331000CD010E944701DC01CB019E838D830FC04C
:1033200088EC90E09C838B838B819C810197F1F7E3
:103330009C838B838D819E8101979E838D838D815C
:103340009E81009769F714C06F81788589859A8579
:103350000E944701DC01CB019E838D838D819E817C
:103360009A83898389819A810197F1F79A83898366
:10337000E0960FB6F894DEBF0FBECDBFCF91DF91C0
:103380000895DF93CF93CDB7DEB7A6970FB6F89425
:10339000DEBF0FBECDBF19A218A281E08F8F82E0E1
:1033A00060E00E94E5151E8E45C1CE0186960E9402
:1033B0004A0F8EA18F3FC9F38EA18D3309F48EC0C1
:1033C00082E069A10E94E5158EA10E94F81480E0B8
:1033D00090E0A8E4B2E4898F9A8FAB8FBC8F698D9F
:1033E0007A8D8B8D9C8D20E030E04AEF54E40E9472
:1033F0008D09DC01CB018D8B9E8BAF8BB88F6D89D6
:103400007E898F89988D20E030E040E85FE30E945C
:10341000930B88232CF481E090E09C8B8B8B3FC036
:103420006D897E898F89988D20E03FEF4FE757E4C3
:103430000E94330B18164CF5698D7A8D8B8D9C8DFF
:1034400020E030E040E251E40E948D09DC01CB0134
:10345000BC01CD010E944701DC01CB019C8B8B8B11
:103460000FC088EC90E09A8B898B89899A890197A3
:10347000F1F79A8B898B8B899C8901979C8B8B8B1D
:103480008B899C89009769F714C06D897E898F8923
:10349000988D0E944701DC01CB019C8B8B8B8B8923
:1034A0009C89988B8F878F8598890197F1F7988BE6
:1034B0008F8782E069A10E94E5158AE20E94F814D4
:1034C00089A1282F30E04EA1CE018296FC01E20FA7
:1034D000F31F408389A18F5F89A367CF89A18430BF
:1034E00089F019A20E94D51681E060E00E94E515DE
:1034F0008EEA90E060E00E94141682E060E00E9494
:10350000E51595C00E94861BCE0182960E94A51BE0
:103510008F8F8F8D882309F47DC081E088A319A245
:103520000E94D5168EEB90E060E00E94141680E0B9
:1035300090E0AAE7B4E48B879C87AD87BE876B8554
:103540007C858D859E8520E030E04AEF54E40E9422
:103550008D09DC01CB018F839887A987BA876F819A
:10356000788589859A8520E030E040E85FE30E9415
:10357000930B88232CF481E090E09E838D833FC0E1
:103580006F81788589859A8520E03FEF4FE757E482
:103590000E94330B18164CF56B857C858D859E85B6
:1035A00020E030E040E251E40E948D09DC01CB01D3
:1035B000BC01CD010E944701DC01CB019E838D83BC
:1035C0000FC088EC90E09C838B838B819C8101975A
:1035D000F1F79C838B838D819E8101979E838D83E0
:1035E0008D819E81009769F729C06F8178858985D3
:1035F0009A850E944701DC01CB019E838D838D81DA
:103600009E819A83898389819A810197F1F79A83B0
:10361000898314C018A219A20E94D5168EEC90E0DE
:1036200060E00E94141682E060E00E94E5158E8D35
:103630008F5F8E8F8E8D833008F4B7CE88A1A696CB
:103640000FB6F894DEBF0FBECDBFCF91DF910895C6
:10365000DF93CF9300D0CDB7DEB71A8281E060E070
:103660000E94E5158EED90E060E00E9414160E9425
:10367000C119898389818823A1F081E08A830E940E
:10368000D51681E060E00E94E5158EEE90E060E0E6
:103690000E94141682E060E00E94E5150E940D1859
:1036A00001C01A828A810F900F90CF91DF91089507
:1036B000DF93CF9300D0CDB7DEB79A838983E981BA
:1036C000FA81808163E070E00E94CA0D89819A814D
:1036D000FC013196808169E170E00E94CA0D898108
:1036E0009A81FC013296808164E670E00E94CA0DE6
:1036F00089819A81FC01339680816DE770E00E9498
:10370000CA0D0F900F90CF91DF910895DF93CF9363
:10371000CDB7DEB78FED92E063E070E00E947C0EE3
:103720008EED92E069E170E00E947C0E8CED92E0FB
:1037300064E670E00E947C0E8DED92E06DE770E033
:103740000E947C0ECF91DF910895DF93CF9300D03C
:103750000F92CDB7DEB79B838A8381E08983EA81AC
:10376000FB8190818091DF02981709F019828A818C
:103770009B81FC01319690818091DE02981709F0BF
:1037800019828A819B81FC01329690818091DC02B2
:10379000981709F019828A819B81FC0133969081E8
:1037A0008091DD02981709F0198289810F900F909E
:1037B0000F90CF91DF910895DF93CF930F92CDB704
:1037C000DEB781E08983EAE3F0E08FEF8083E7E30F
:1037D000F0E08FEF8083E4E3F0E01082E1E3F0E0DB
:1037E00087E08083EBE3F0E08FEF8083E8E3F0E0B5
:1037F00080EF8083E5E3F0E01082E2E3F0E080EF29
:10380000808389810F90CF91DF910895DF93CF93CB
:10381000CDB7DEB72A970FB6F894DEBF0FBECDBF87
:103820008A836B834C8319828A81843008F0FAC0C2
:103830008B81883008F0F6C081E089838C81282F45
:1038400030E03A87298789859A85009709F475C001
:1038500029853A852130310509F0E3C08A81282F76
:1038600030E038872F838F8198858130910549F129
:103870002F813885223031052CF48F81988500976F
:1038800061F0D0C02F8138852230310571F18F81F0
:10389000988583309105E9F1C5C0ABE3B0E0EBE377
:1038A000F0E08081482F8B81282F30E081E090E08C
:1038B000022E02C0880F991F0A94E2F7842B8C9382
:1038C000B1C0A8E3B0E0E8E3F0E08081482F8B814D
:1038D000282F30E081E090E0022E02C0880F991F6F
:1038E0000A94E2F7842B8C939DC0A5E3B0E0E5E356
:1038F000F0E08081482F8B81282F30E081E090E03C
:10390000022E02C0880F991F0A94E2F7842B8C9331
:1039100089C0A2E3B0E0E2E3F0E08081482F8B8130
:10392000282F30E081E090E0022E02C0880F991F1E
:103930000A94E2F7842B8C9375C08A81282F30E09B
:103940003E832D838D819E818130910559F12D819A
:103950003E81223031052CF48D819E81009769F0E3
:1039600061C02D813E812230310589F18D819E819A
:103970008330910509F440C055C0ABE3B0E0EBE300
:10398000F0E08081482F8B81282F30E081E090E0AB
:10399000022E02C0880F991F0A94E2F780958423B3
:1039A0008C9340C0A8E3B0E0E8E3F0E08081482FCA
:1039B0008B81282F30E081E090E0022E02C0880F3A
:1039C000991F0A94E2F7809584238C932BC0A5E37A
:1039D000B0E0E5E3F0E08081482F8B81282F30E0D4
:1039E00081E090E0022E02C0880F991F0A94E2F74E
:1039F000809584238C9316C0A2E3B0E0E2E3F0E06C
:103A00008081482F8B81282F30E081E090E0022ECA
:103A100002C0880F991F0A94E2F7809584238C9343
:103A200001C0198289812A960FB6F894DEBF0FBEB5
:103A3000CDBFCF91DF910895DF93CF93CDB7DEB7A0
:103A400027970FB6F894DEBF0FBECDBF8A836B8376
:103A50005D834C8319828A81843008F07DC08B811C
:103A6000883008F079C08C819D81009709F474C07A
:103A700081E089838A81282F30E03F832E834E8125
:103A80005F814130510559F18E819F8182309105CE
:103A900034F42E813F812115310569F05CC04E81DF
:103AA0005F814230510579F18E819F81833091058C
:103AB00009F43DC050C0E9E3F0E08081282F30E0F8
:103AC0008B81882F90E0A90102C0559547958A9572
:103AD000E2F7CA018170EC81FD8180833DC0E6E39D
:103AE000F0E08081282F30E08B81882F90E0A901C1
:103AF00002C0559547958A95E2F7CA018170EC811D
:103B0000FD81808329C0E3E3F0E08081282F30E04D
:103B10008B81882F90E0A90102C0559547958A9521
:103B2000E2F7CA018170EC81FD81808315C0E0E37A
:103B3000F0E08081282F30E08B81882F90E0A90170
:103B400002C0559547958A95E2F7CA018170EC81CC
:103B5000FD81808301C01982898127960FB6F89470
:103B6000DEBF0FBECDBFCF91DF910895DF93CF931E
:103B700000D000D00F92CDB7DEB78A836B83198255
:103B80008A818430A0F581E089838A81282F30E002
:103B90003D832C838C819D8181309105D1F02C81D6
:103BA0003D81223031052CF48C819D81009761F09C
:103BB0001EC02C813D812230310581F08C819D8198
:103BC0008330910581F013C0EBE3F0E08B818083BB
:103BD0000EC0E8E3F0E08B81808309C0E5E3F0E00C
:103BE0008B81808304C0E2E3F0E08B818083898154
:103BF0000F900F900F900F900F90CF91DF9108953D
:103C0000DF93CF930F92CDB7DEB781E08983A3E531
:103C1000B0E0E3E5F0E08081887F8C93A3E5B0E03D
:103C2000E3E5F0E080818C93A9E5B0E0E9E5F0E020
:103C3000808181608C930E94221E89810F90CF9198
:103C4000DF910895DF93CF93CDB7DEB788E090E0A2
:103C5000A0E0B0E08093CA029093CB02A093CC0284
:103C6000B093CD02CF91DF910895DF93CF93CDB77D
:103C7000DEB7A3E5B0E0E3E5F0E08081887F8C93D8
:103C8000CF91DF910895AF92BF92CF92DF92EF92E2
:103C9000FF920F931F93DF93CF93CDB7DEB7C65D2F
:103CA000D0400FB6F894DEBF0FBECDBF8AA37CA371
:103CB0006BA35EA34DA338A72FA31AA709A781E082
:103CC00089A38AA18823A9F48BA19CA1009789F4D8
:103CD0008DA19EA1009769F48FA198A5009749F442
:103CE00089A59AA5009729F40E94351E19A20C9463
:103CF000232A8091CA029091CB02A091CC02B0916C
:103D0000CD02689412F8B695A79597958795169465
:103D1000D1F79C01AD0160E070E080E090E0298F78
:103D20003A8F4B8F5C8F6D8F7E8F8F8F98A3298DED
:103D30003A8D4B8D5C8D6D8D7E8D8F8D98A108E0B9
:103D40000E94C800A22EB32EC42ED52EE62EF72E2A
:103D5000082F192FA98ABA8ACB8ADC8AED8AFE8AB3
:103D60000F8B188F8AA1882F90E0A0E0B0E020E0B0
:103D700034EA43E956EDBC01CD010E94D630DC01A6
:103D8000CB019C01AD0160E070E080E090E0298310
:103D90003A834B835C836D837E838F8398878BA16B
:103DA0009CA1CC01A0E0B0E020E037E843E953E07B
:103DB000BC01CD010E94D630DC01CB018C019D01FC
:103DC00040E050E060E070E024960FAF2497259625
:103DD0001FAF259726962FAF269727963FAF279799
:103DE00028964FAF289729965FAF29972A966FAFED
:103DF0002A972B967FAF2B9719812C961FAF2C9764
:103E00002A812D962FAF2D973B812E963FAF2E976F
:103E10004C812F964FAF2F975D8160965FAF609773
:103E20006E8161966FAF61977F8162967FAF629777
:103E3000888563968FAF63972C969FAD2C972496B9
:103E40000FAD2497900F64969FAF649711E06C9626
:103E50001FAF6C9764962FAD64972C963FAD2C974F
:103E6000231718F06C961FAE6C972D964FAD2D97BB
:103E700025965FAD2597450F65964FAF659761E035
:103E80006D966FAF6D9765967FAD65972D968FADEB
:103E90002D97781718F06D961FAE6D976C969FADA5
:103EA0006C9765960FAD6597900F6E969FAF6E9766
:103EB00011E06F961FAF6F976E962FAD6E97659658
:103EC0003FAD6597231718F06F961FAE6F976D96ED
:103ED0004FAD6D976F965FAD6F97452B6D964FAF5A
:103EE0006D976E966FAD6E9765966FAF65972E96D0
:103EF0007FAD2E9726968FAD2697780F66967FAF6B
:103F0000669791E0A0969FAFA09766960FAD6697D3
:103F10002E961FAD2E97011718F0A0961FAEA097F2
:103F20006D962FAD6D9766963FAD6697230FA19660
:103F30002FAFA19741E0A2964FAFA297A1965FAD98
:103F4000A19766966FAD6697561718F0A2961FAEAA
:103F5000A297A0967FADA097A2968FADA297782B3F
:103F6000A0967FAFA097A1969FADA19766969FAFB1
:103F700066972F960FAD2F9727961FAD2797010FA6
:103F800067960FAF679721E0A3962FAFA397679629
:103F90003FAD67972F964FAD2F97341718F0A39624
:103FA0001FAEA397A0965FADA09767966FAD67977A
:103FB000560FA4965FAFA49771E0A5967FAFA59723
:103FC000A4968FADA49767969FAD6797891718F051
:103FD000A5961FAEA597A3960FADA397A5961FAD67
:103FE000A597012BA3960FAFA397A4962FADA497E7
:103FF00067962FAF679760963FAD609728964FAD55
:104000002897340F68963FAF689751E0A6965FAF48
:10401000A69768966FAD689760967FAD60976717B3
:1040200018F0A6961FAEA697A3968FADA397689695
:104030009FAD6897890FA7968FAFA79701E0A896C5
:104040000FAFA897A7961FADA79768962FAD689753
:10405000121718F0A8961FAEA897A6963FADA69780
:10406000A8964FADA897342BA6963FAFA697A796D4
:104070005FADA79768965FAF689761966FAD6197E0
:1040800029967FAD2997670F69966FAF699781E091
:10409000A9968FAFA99769969FAD699761960FAD65
:1040A0006197901718F0A9961FAEA997A6961FAD15
:1040B000A69769962FAD6997120FAA961FAFAA9778
:1040C00031E0AB963FAFAB97AA964FADAA976996F2
:1040D0005FAD6997451718F0AB961FAEAB97A996E1
:1040E0006FADA997AB967FADAB97672BA9966FAFD6
:1040F000A997AA968FADAA9769968FAF699762968E
:104100009FAD62972A960FAD2A97900F6A969FAF40
:104110006A9711E0AC961FAFAC976A962FAD6A977D
:1041200062963FAD6297231718F0AC961FAEAC971E
:10413000A9964FADA9976A965FAD6A97450FAD9660
:104140004FAFAD9761E0AE966FAFAE97AD967FADD6
:10415000AD976A968FAD6A97781718F0AE961FAE36
:10416000AE97AC969FADAC97AE960FADAE97902B39
:10417000AC969FAFAC97AD961FADAD976A961FAF4B
:104180006A9763962FAD63972B963FAD2B97230FBE
:104190006B962FAF6B97AC968FADAC976B964FAD80
:1041A0006B97840F6B968FAF6B9764965FAD649738
:1041B000598365966FAD65976A8366967FAD6697FE
:1041C0007B8367968FAD67978C8368969FAD689762
:1041D0009D8369960FAD69970E836A961FAD6A97A6
:1041E0001F836B962FAD6B9728878DA19EA1CC0165
:1041F000A0E0B0E020E432E44FE050E0BC01CD01AB
:104200000E94D630DC01CB018C019D0140E050E0E2
:1042100060E070E00BAF1CAF2DAF3EAF4FAF21960B
:104220005FAF219722966FAF229723967FAF239798
:104230001981AF961FAFAF972A81E0962FAFE09715
:104240003B81E1963FAFE1974C81E2964FAFE29719
:104250005D81E3965FAFE3976E81E4966FAFE4977D
:104260007F81E5967FAFE5978885E6968FAFE697E5
:10427000AF969FADAF970BAD900FE7969FAFE797C7
:1042800011E0EF961FAFEF97E7962FADE797AF9648
:104290003FADAF97231718F0EF961FAEEF97E0965C
:1042A0004FADE0975CAD450FE8964FAFE89761E002
:1042B000C158DF4F6883CF57D040E8967FADE8976D
:1042C000E0968FADE097781728F0C158DF4F18823D
:1042D000CF57D040EF969FADEF97E8960FADE89798
:1042E000900FC058DF4F9883C058D04011E0CF578F
:1042F000DF4F1883C158D040C058DF4F2881C058C5
:10430000D040E8963FADE897231728F0CF57DF4F0E
:104310001882C158D040C158DF4F4881CF57D04094
:10432000CF57DF4F5881C158D040452BC158DF4F80
:104330004883CF57D040C058DF4F6881C058D04025
:10434000E8966FAFE897E1967FADE1978DAD780F76
:10435000E9967FAFE99791E0CE57DF4F9883C25837
:10436000D040E9960FADE997E1961FADE1970117AF
:1043700028F0CE57DF4F1882C258D040C158DF4FC7
:104380002881CF57D040E9963FADE997230FCD570D
:10439000DF4F2883C358D04041E0CC57DF4F4883DC
:1043A000C458D040CD57DF4F5881C358D040E9960C
:1043B0006FADE997561728F0CC57DF4F1882C458D5
:1043C000D040CE57DF4F7881C258D040CC57DF4F16
:1043D0008881C458D040782BCE57DF4F7883C2589D
:1043E000D040CD57DF4F9881C358D040E9969FAF5A
:1043F000E997E2960FADE2971EAD010FEA960FAF77
:10440000EA9721E0CB57DF4F2883C558D040EA9682
:104410003FADEA97E2964FADE297341728F0CB57BD
:10442000DF4F1882C558D040CE57DF4F5881C25851
:10443000D040EA966FADEA97560FCA57DF4F5883C0
:10444000C658D04071E0C957DF4F7883C758D04075
:10445000CA57DF4F8881C658D040EA969FADEA9789
:10446000891728F0C957DF4F1882C758D040CB575B
:10447000DF4F0881C558D040C957DF4F1881C75852
:10448000D040012BCB57DF4F0883C558D040CA57C7
:10449000DF4F2881C658D040EA962FAFEA97E396BF
:1044A0003FADE3974FAD340FEB963FAFEB9751E045
:1044B000C857DF4F5883C858D040EB966FADEB9785
:1044C000E3967FADE397671728F0C857DF4F188250
:1044D000C858D040CB57DF4F8881C558D040EB96A5
:1044E0009FADEB97890FC757DF4F8883C958D040DE
:1044F00001E0C657DF4F0883CA58D040C757DF4F87
:104500001881C958D040EB962FADEB97121728F0C1
:10451000C657DF4F1882CA58D040C857DF4F38817E
:10452000C858D040C657DF4F4881CA58D040342BB6
:10453000C857DF4F3883C858D040C757DF4F58811E
:10454000C958D040EB965FAFEB97E4966FADE49718
:1045500021967FAD2197670FEC966FAFEC9781E0C6
:10456000C557DF4F8883CB58D040EC969FADEC9772
:10457000E4960FADE497901728F0C557DF4F1882E7
:10458000CB58D040C857DF4F1881C858D040EC9660
:104590002FADEC97120FC457DF4F1883CC58D04083
:1045A00031E0C357DF4F3883CD58D040C457DF4F79
:1045B0004881CC58D040EC965FADEC97451728F079
:1045C000C357DF4F1882CD58D040C557DF4F6881A1
:1045D000CB58D040C357DF4F7881CD58D040672BA0
:1045E000C557DF4F6883CB58D040C457DF4F888111
:1045F000CC58D040EC968FAFEC97E5969FADE59701
:1046000022960FAD2297900FED969FAFED9711E098
:10461000C257DF4F1883CE58D040ED962FADED979F
:10462000E5963FADE597231728F0C257DF4F188274
:10463000CE58D040C557DF4F4881CB58D040ED967B
:104640005FADED97450FC157DF4F4883CF58D0403E
:1046500061E0C057DF4F6883C059D040C157DF4F7A
:104660007881CF58D040ED968FADED97781728F030
:10467000C057DF4F1882C059D040C257DF4F9881D2
:10468000CE58D040C057DF4F0881C059D040902B42
:10469000C257DF4F9883CE58D040C157DF4F1881A3
:1046A000CF58D040ED961FAFED97E6962FADE69729
:1046B00023963FAD2397230FEE962FAFEE97C25769
:1046C000DF4F8881CE58D040EE964FADEE97840FE5
:1046D000EE968FAFEE97E7965FADE7975983E89632
:1046E0006FADE8976A83E9967FADE9977B83EA9699
:1046F0008FADEA978C83EB969FADEB979D83EC96FD
:104700000FADEC970E83ED961FADED971F83EE96E0
:104710002FADEE9728872FA138A588EE93E0AC0146
:10472000249FC001259F900D349F900D11248C0172
:1047300020E030E040E050E060E070E00BAB1CAB0C
:104740002DAB3EAB4FAB58AF69AF7AAF1981CF56A7
:10475000DF4F1883C159D0402A81CE56DF4F2883BE
:10476000C259D0403B81CD56DF4F3883C359D0402A
:104770004C81CC56DF4F4883C459D0405D81CB5625
:10478000DF4F5883C559D0406E81CA56DF4F6883CA
:10479000C659D0407F81C956DF4F7883C759D04072
:1047A0008885C856DF4F8883C859D040CF56DF4F21
:1047B0009881C159D0400BA9900FC756DF4F9883FD
:1047C000C959D04011E0CF55DF4F1883C15AD040AE
:1047D000C756DF4F2881C959D040CF56DF4F3881A7
:1047E000C159D040231728F0CF55DF4F1882C15A46
:1047F000D040CE56DF4F4881C259D0405CA9450F0A
:10480000C656DF4F4883CA59D04061E0CE55DF4FCE
:104810006883C25AD040C656DF4F7881CA59D0400B
:10482000CE56DF4F8881C259D040781728F0CE5538
:10483000DF4F1882C25AD040CF55DF4F9881C15AFE
:10484000D040C656DF4F0881CA59D040900FCD5591
:10485000DF4F9883C35AD04011E0CC55DF4F188307
:10486000C45AD040CD55DF4F2881C35AD040C656D8
:10487000DF4F3881CA59D040231728F0CC55DF4F7D
:104880001882C45AD040CE55DF4F4881C25AD0401A
:10489000CC55DF4F5881C45AD040452BCE55DF4F01
:1048A0004883C25AD040CD55DF4F6881C35AD040AB
:1048B000C656DF4F6883CA59D040CD56DF4F788146
:1048C000C359D0408DA9780FC556DF4F7883CB5997
:1048D000D04091E0CB55DF4F9883C55AD040C556A4
:1048E000DF4F0881CB59D040CD56DF4F1881C359D7
:1048F000D040011728F0CB55DF4F1882C55AD04061
:10490000CE55DF4F2881C25AD040C556DF4F38817F
:10491000CB59D040230FCA55DF4F2883C65AD04009
:1049200041E0C955DF4F4883C75AD040CA55DF4FD1
:104930005881C65AD040C556DF4F6881CB59D04008
:10494000561728F0C955DF4F1882C75AD040CB55AB
:10495000DF4F7881C55AD040C955DF4F8881C75A8B
:10496000D040782BCB55DF4F7883C55AD040CA55FD
:10497000DF4F9881C65AD040C556DF4F9883CB5938
:10498000D040CC56DF4F0881C459D0401EA9010F3A
:10499000C456DF4F0883CC59D04021E0C855DF4FC3
:1049A0002883C85AD040C456DF4F3881CC59D040F4
:1049B000CC56DF4F4881C459D040341728F0C85531
:1049C000DF4F1882C85AD040CB55DF4F5881C55AA7
:1049D000D040C456DF4F6881CC59D040560FC755E0
:1049E000DF4F5883C95AD04071E0C655DF4F7883F6
:1049F000CA5AD040C755DF4F8881C95AD040C456E3
:104A0000DF4F9881CC59D040891728F0C655DF4F29
:104A10001882CA5AD040C855DF4F0881C85AD040C2
:104A2000C655DF4F1881CA5AD040012BC855DF4FF9
:104A30000883C85AD040C755DF4F2881C95AD04093
:104A4000C456DF4F2883CC59D040CB56DF4F388136
:104A5000C559D0404FA9340FC356DF4F3883CD59C5
:104A6000D04051E0C555DF4F5883CB5AD040C35694
:104A7000DF4F6881CD59D040CB56DF4F7881C55983
:104A8000D040671728F0C555DF4F1882CB5AD04069
:104A9000C855DF4F8881C85AD040C356DF4F988130
:104AA000CD59D040890FC455DF4F8883CC5AD040B0
:104AB00001E0C355DF4F0883CD5AD040C455DF4FC6
:104AC0001881CC5AD040C356DF4F2881CD59D040F1
:104AD000121728F0C355DF4F1882CD5AD040C55564
:104AE000DF4F3881CB5AD040C355DF4F4881CD5A74
:104AF000D040342BC555DF4F3883CB5AD040C455F6
:104B0000DF4F5881CC5AD040C356DF4F5883CD5920
:104B1000D040CA56DF4F6881C659D04078AD670F84
:104B2000C256DF4F6883CE59D04081E0C255DF4F77
:104B30008883CE5AD040C256DF4F9881CE59D0409C
:104B4000CA56DF4F0881C659D040901728F0C25589
:104B5000DF4F1882CE5AD040C555DF4F1881CB5A4F
:104B6000D040C256DF4F2881CE59D040120FC155D8
:104B7000DF4F1883CF5AD04031E0C055DF4F388324
:104B8000C05BD040C155DF4F4881CF5AD040C2569C
:104B9000DF4F5881CE59D040451728F0C055DF4F20
:104BA0001882C05BD040C255DF4F6881CE5AD040DA
:104BB000C055DF4F7881C05BD040672BC255DF4FB7
:104BC0006883CE5AD040C155DF4F8881CF5AD0403C
:104BD000C256DF4F8883CE59D040C956DF4F9881E7
:104BE000C759D04009AD900FC156DF4F9883CF59B8
:104BF000D04011E0CF54DF4F1883C15BD040C15685
:104C0000DF4F2881CF59D040C956DF4F3881C7596F
:104C1000D040231728F0CF54DF4F1882C15BD0401B
:104C2000C255DF4F4881CE5AD040C156DF4F588120
:104C3000CF59D040450FCE54DF4F4883C25BD040A0
:104C400061E0CD54DF4F6883C35BD040CE54DF4F6B
:104C50007881C25BD040C156DF4F8881CF59D040A8
:104C6000781728F0CD54DF4F1882C35BD040CF5463
:104C7000DF4F9881C15BD040CD54DF4F0881C35BCB
:104C8000D040902BCF54DF4F9883C15BD040CE549F
:104C9000DF4F1881C25BD040C156DF4F1883CF5918
:104CA000D040C856DF4F2881C859D0403AAD230FB5
:104CB000C056DF4F2883C05AD040CF54DF4F888181
:104CC000C15BD040C056DF4F4881C05AD040840FEE
:104CD000C056DF4F8883C05AD040C756DF4F588137
:104CE000C959D0405983C656DF4F6881CA59D04050
:104CF0006A83C556DF4F7881CB59D0407B83C45639
:104D0000DF4F8881CC59D0408C83C356DF4F9881C8
:104D1000CD59D0409D83C256DF4F0881CE59D04037
:104D20000E83C156DF4F1881CF59D0401F83C05624
:104D3000DF4F2881C05AD040288789A59AA58C01C9
:104D400020E030E040E050E060E070E00BA71CA7FE
:104D50002DA73EA74FA758AB69AB7AAB1981CC54AE
:104D6000DF4F1883C45BD0402A81CB54DF4F2883A8
:104D7000C55BD0403B81CA54DF4F3883C65BD0400F
:104D80004C81C954DF4F4883C75BD0405D81C85414
:104D9000DF4F5883C85BD0406E81C754DF4F6883B4
:104DA000C95BD0407F81C654DF4F7883CA5BD04057
:104DB0008885C554DF4F8883CB5BD040CC54DF4F10
:104DC0009881C45BD0400BA5900FC454DF4F9883EB
:104DD000CC5BD04011E0CC53DF4F1883C45CD04093
:104DE000C454DF4F2881CC5BD040CC54DF4F388196
:104DF000C45BD040231728F0CC53DF4F1882C45C2B
:104E0000D040CB54DF4F4881C55BD0405CA5450FF7
:104E1000C354DF4F4883CD5BD04061E0CB53DF4FBD
:104E20006883C55CD040C354DF4F7881CD5BD040F0
:104E3000CB54DF4F8881C55BD040781728F0CB5327
:104E4000DF4F1882C55CD040CC53DF4F9881C45CE3
:104E5000D040C354DF4F0881CD5BD040900FCA5380
:104E6000DF4F9883C65CD04011E0C953DF4F1883F1
:104E7000C75CD040CA53DF4F2881C65CD040C354C2
:104E8000DF4F3881CD5BD040231728F0C953DF4F67
:104E90001882C75CD040CB53DF4F4881C55CD040FF
:104EA000C953DF4F5881C75CD040452BCB53DF4FF0
:104EB0004883C55CD040CA53DF4F6881C65CD04090
:104EC000C354DF4F6883CD5BD040CA54DF4F788135
:104ED000C65BD0408DA5780FC254DF4F7883CE5B80
:104EE000D04091E0C853DF4F9883C85CD040C25493
:104EF000DF4F0881CE5BD040CA54DF4F1881C65BBC
:104F0000D040011728F0C853DF4F1882C85CD0404A
:104F1000CB53DF4F2881C55CD040C254DF4F38816E
:104F2000CE5BD040230FC753DF4F2883C95CD040EE
:104F300041E0C653DF4F4883CA5CD040C753DF4FC0
:104F40005881C95CD040C254DF4F6881CE5BD040ED
:104F5000561728F0C653DF4F1882CA5CD040C8539A
:104F6000DF4F7881C85CD040C653DF4F8881CA5C70
:104F7000D040782BC853DF4F7883C85CD040C753EC
:104F8000DF4F9881C95CD040C254DF4F9883CE5B1D
:104F9000D040C954DF4F0881C75BD0401EA5010F28
:104FA000C154DF4F0883CF5BD04021E0C553DF4FB2
:104FB0002883CB5CD040C154DF4F3881CF5BD040D9
:104FC000C954DF4F4881C75BD040341728F0C55320
:104FD000DF4F1882CB5CD040C853DF4F5881C85C8C
:104FE000D040C154DF4F6881CF5BD040560FC453CF
:104FF000DF4F5883CC5CD04071E0C353DF4F7883E0
:10500000CD5CD040C453DF4F8881CC5CD040C154CC
:10501000DF4F9881CF5BD040891728F0C353DF4F13
:105020001882CD5CD040C553DF4F0881CB5CD040A7
:10503000C353DF4F1881CD5CD040012BC553DF4FE8
:105040000883CB5CD040C453DF4F2881CC5CD04078
:10505000C154DF4F2883CF5BD040C854DF4F388125
:10506000C85BD0404FA5340FC054DF4F3883C05CBD
:10507000D04051E0C253DF4F5883CE5CD040C05483
:10508000DF4F6881C05CD040C854DF4F7881C85B77
:10509000D040671728F0C253DF4F1882CE5CD04053
:1050A000C553DF4F8881CB5CD040C054DF4F98811F
:1050B000C05CD040890FC153DF4F8883CF5CD040A4
:1050C00001E0C053DF4F0883C05DD040C153DF4FC4
:1050D0001881CF5CD040C054DF4F2881C05CD040E5
:1050E000121728F0C053DF4F1882C05DD040C25362
:1050F000DF4F3881CE5CD040C053DF4F4881C05D68
:10510000D040342BC253DF4F3883CE5CD040C153E4
:10511000DF4F5881CF5CD040C054DF4F5883C05C14
:10512000D040C754DF4F6881C95BD04078A9670F72
:10513000CF53DF4F6883C15CD04081E0CF52DF4F57
:105140008883C15DD040CF53DF4F9881C15CD04090
:10515000C754DF4F0881C95BD040901728F0CF5269
:10516000DF4F1882C15DD040C253DF4F1881CE5C43
:10517000D040CF53DF4F2881C15CD040120FCE52B8
:10518000DF4F1883C25DD04031E0CD52DF4F38830E
:10519000C35DD040CE52DF4F4881C25DD040CF5377
:1051A000DF4F5881C15CD040451728F0CD52DF4F0A
:1051B0001882C35DD040CF52DF4F6881C15DD040BF
:1051C000CD52DF4F7881C35DD040672BCF52DF4F88
:1051D0006883C15DD040CE52DF4F8881C25DD04030
:1051E000CF53DF4F8883C15CD040C654DF4F9881D6
:1051F000CA5BD04009A9900FCE53DF4F9883C25CA1
:10520000D04011E0CC52DF4F1883C45DD040CE5364
:10521000DF4F2881C25CD040C654DF4F3881CA5B63
:10522000D040231728F0CC52DF4F1882C45DD04005
:10523000CF52DF4F4881C15DD040CE53DF4F588100
:10524000C25CD040450FCB52DF4F4883C55DD04094
:1052500061E0CA52DF4F6883C65DD040CB52DF4F5A
:105260007881C55DD040CE53DF4F8881C25CD0408D
:10527000781728F0CA52DF4F1882C65DD040CC5252
:10528000DF4F9881C45DD040CA52DF4F0881C65DB0
:10529000D040902BCC52DF4F9883C45DD040CB528E
:1052A000DF4F1881C55DD040CE53DF4F1883C25CFD
:1052B000D040C554DF4F2881CB5BD0403AA9230FA3
:1052C000CD53DF4F2883C35CD040CC52DF4F888161
:1052D000C45DD040CD53DF4F4881C35CD040840FC4
:1052E000CD53DF4F8883C35CD040C454DF4F588117
:1052F000CC5BD0405983C354DF4F6881CD5BD04035
:105300006A83C254DF4F7881CE5BD0407B83C15427
:10531000DF4F8881CF5BD0408C83C054DF4F9881B2
:10532000C05CD0409D83CF53DF4F0881C15CD0402B
:105330000E83CE53DF4F1881C25CD0401F83CD5304
:10534000DF4F2881C35CD0402887A980BA80CB80FA
:10535000DC80ED80FE800F8118852A2D3B2D4C2DA1
:105360005D2D6E2D7F2D802F912F08E00E9449002A
:10537000A22EB32EC42ED52EE62EF72E082F192FCF
:10538000A986BA86CB86DC86ED86FE860F87188BCB
:10539000A980BA80CB80DC80ED80FE800F811885EB
:1053A0002A2D3B2D4C2D5D2D6E2D7F2D802F912F85
:1053B000A988BA88CB88DC88ED88FE880F89188D8B
:1053C0000E947301A22EB32EC42ED52EE62EF72EE8
:1053D000082F192F2A2D3B2D4C2D5D2D6E2D7F2D45
:1053E000802F912F80E091E0A0E0B0E0821B930B32
:1053F000A40BB50B8093D2029093D302A093D40256
:10540000B093D50289859A85AB85BC850196A11D8F
:10541000B11D8093CE029093CF02A093D002B0939F
:10542000D102E2E5F0E08091D2029091D302A09106
:10543000D402B091D5028083A3E5B0E0E3E5F0E0CB
:10544000808182608C9389A1CA52DF4F0FB6F89495
:10545000DEBF0FBECDBFCF91DF911F910F91FF90A7
:10546000EF90DF90CF90BF90AF900895DF93CF93F0
:1054700000D000D0CDB7DEB78A837C836B831982DE
:105480008B819C81009771F081E089838A81882FCC
:1054900090E0880F991FFC01EA53FD4F8B819C819E
:1054A0009183808389810F900F900F900F90CF91FF
:1054B000DF9108951F920F920FB60F9211242F9330
:1054C0003F934F935F936F937F938F939F93AF938C
:1054D000BF93EF93FF93DF93CF93CDB7DEB7809168
:1054E000D6029091D70201969093D7028093D6026C
:1054F0008091D6029091D7029C0140E050E08091CB
:10550000CE029091CF02A091D002B091D102281783
:1055100039074A075B07D1F48091C6029091C70210
:105520000097A1F0E2E5F0E08091D2029091D302E1
:10553000A091D402B091D5028083E091C602F0918F
:10554000C70209951092D7021092D602CF91DF912F
:10555000FF91EF91BF91AF919F918F917F916F914B
:105560005F914F913F912F910F900FBE0F901F9021
:105570001895DF93CF9300D00F92CDB7DEB7898314
:10558000A1E2B0E0E1E2F0E080818D7F8C93A1E2C6
:10559000B0E0E1E2F0E080818E7F8C938981282F5A
:1055A00030E03B832A838A819B8182309105D9F048
:1055B0002A813B812330310534F48A819B818130FB
:1055C000910561F01EC02A813B812330310581F0B5
:1055D0008A819B818430910581F013C0E0E2F0E084
:1055E00080E280830EC0E0E2F0E08CE0808309C0BE
:1055F000E0E2F0E086E0808304C0E0E2F0E082E0F8
:105600008083A6E5B0E0E6E5F0E0808180648C93DD
:10561000A6E5B0E0E6E5F0E0808184608C930F9031
:105620000F900F90CF91DF910895DF93CF930F925A
:10563000CDB7DEB78983E2E2F0E08981880F80830D
:10564000A6E5B0E0E6E5F0E0808180648C93A6E515
:10565000B0E0E6E5F0E0808184608C930F90CF911C
:10566000DF910895DF93CF9300D0CDB7DEB781E00F
:105670008983A6E5B0E0E6E5F0E0808180628C9366
:10568000A6E5B0E0E6E5F0E0808180688C930E94BA
:10569000612C8A838A81882F90E0887F907088307F
:1056A000910511F082E0898389810F900F90CF914D
:1056B000DF910895DF93CF9300D0CDB7DEB781E0BF
:1056C0008983A6E5B0E0E6E5F0E0808180628C9316
:1056D000A6E5B0E0E6E5F0E0808180688C930E946A
:1056E000612C8A838A81882F90E0887F9070803136
:1056F000910511F083E0898389810F900F90CF91FC
:10570000DF910895DF93CF9300D00F92CDB7DEB72E
:105710008B8381E08983E3E2F0E08B81880F8083D3
:10572000A3E2B0E0E3E2F0E080818E7F8C93A6E517
:10573000B0E0E6E5F0E080818F7D8C93A6E5B0E0F7
:10574000E6E5F0E0808180688C930E94612C8A837A
:105750008A81882F90E0887F90708831910511F0C0
:1057600084E0898389810F900F900F90CF91DF9112
:105770000895DF93CF9300D00F92CDB7DEB78B8320
:1057800081E08983E3E2F0E08B81880F8083A3E2EC
:10579000B0E0E3E2F0E0808181608C93A6E5B0E0C8
:1057A000E6E5F0E080818F7D8C93A6E5B0E0E6E54C
:1057B000F0E0808180688C930E94612C8A838A81CA
:1057C000882F90E0887F90708034910511F085E0FB
:1057D000898389810F900F900F90CF91DF91089569
:1057E000DF93CF9300D00F92CDB7DEB78B8381E0EC
:1057F0008983E3E2F0E08B818083A6E5B0E0E6E513
:10580000F0E0808180688C930E94612C8A838A8179
:10581000882F90E0887F90708832910511F086E0A3
:10582000898389810F900F900F90CF91DF91089518
:10583000DF93CF9300D000D0CDB7DEB79C838B83AE
:1058400081E089838B819C810097E1F0A6E5B0E03F
:10585000E6E5F0E0808180688C930E94612C8A8369
:105860008A81882F90E0887F90708035910519F0AB
:1058700088E0898309C0E3E2F0E08081EB81FC816C
:10588000808302C087E0898389810F900F900F90F9
:105890000F90CF91DF910895DF93CF93CDB7DEB70F
:1058A000A6E5B0E0E6E5F0E0808180618C93A6E5B6
:1058B000B0E0E6E5F0E0808180688C93CF91DF91E5
:1058C0000895DF93CF93CDB7DEB7E6E5F0E08081B2
:1058D0008823DCF7E1E2F0E08081CF91DF91089549
:1058E000DF93CF93CDB7DEB763970FB6F894DEBFE3
:1058F0000FBECDBFAFE5B0E0EFE5F0E0808180689E
:105900008C930E94DC1B0E94D81084E00E94BD0D85
:105910001B8A8AED92E061E070E00E947C0E80912B
:10592000DA02813011F00E945E170E94D51681E0E4
:1059300060E00E94E5158DEF90E060E00E94141693
:105940000E94C1198B8B0E94D5168B89882309F080
:1059500081C08DE091E060E00E94141682E060E07A
:105960000E94E5158CE191E060E00E94141680E051
:1059700090E8ABE3B5E48B879C87AD87BE876B85EA
:105980007C858D859E8520E030E04AEF54E40E94BE
:105990008D09DC01CB018F839887A987BA876F8136
:1059A000788589859A8520E030E040E85FE30E94B1
:1059B000930B88232CF481E090E09E838D833FC07D
:1059C0006F81788589859A8520E03FEF4FE757E41E
:1059D0000E94330B18164CF56B857C858D859E8552
:1059E00020E030E040E251E40E948D09DC01CB016F
:1059F000BC01CD010E944701DC01CB019E838D8358
:105A00000FC088EC90E09C838B838B819C810197F5
:105A1000F1F79C838B838D819E8101979E838D837B
:105A20008D819E81009769F773CF6F817885898515
:105A30009A850E944701DC01CB019E838D838D8175
:105A40009E819A83898389819A810197F1F79A834C
:105A500089835ECF0E94D5168BE291E060E00E94C0
:105A6000141682E060E00E94E51583E391E060E0B7
:105A70000E9414160E94492E8A8B8A89813309F06C
:105A8000BCC00E94D5168EE391E060E00E9414161F
:105A900082E060E00E94E5158AE491E060E00E9407
:105AA00014160E94492E8A8B8A89813309F06BC0B3
:105AB0000E94D51686E591E060E00E94141682E00F
:105AC00060E00E94E5150E94492E8A8B0E94D5163F
:105AD00081E060E00E94E51584E691E061E00E94CB
